S0130000546865726D6F6D657465722E7372656385
S113000071C0000081C000007FC000007DC00000FE
S11300107BC0000079C0000077C0000075C00000FC
S113002073C0000071C000006FC000006DC000000C
S11300306BC0000069C0000067C0000065C000001C
S113004063C0000000C100005FC000005DC000008C
S11300505BC0000059C0000057C0000055C000003C
S113006053C0000051C000004FC000004DC000004C
S11300704BC00000B3C0000047C0000045C00000F2
S113008043C0000041C000003FC000003DC000006C
S11300903BC0000039C0000037C0000035C000007C
S11300A033C0000031C000002FC000002DC000008C
S11300B02BC0000029C0000027C0000025C000009C
S11300C023C0000021C000001FC000001DC00000AC
S11300D01BC0000019C0000017C0000015C00000BC
S11300E013C0000011241FBECFEFD1E2DEBFCDBF8D
S11300F000E00CBF22E0A0E0B2E001C01D92AC30F1
S1130100B207E1F7CDD0DFC27BCFE1E8F0E0808138
S11301108C608083109285001092840083E294EFB7
S11301209093890080938800EFE6F0E080818260FC
S1130130808378940895E7E0F1E080818F7780836D
S113014083B3816083BBECE7F0E0808187648083C4
S1130150EBE7F0E080818860808380818560808324
S1130160EAE7F0E080818F6A808384B3816084BB96
S11301700895EAE7F0E080818064808380917A00CA
S113018086FDFCCF0895609178007091790080E03D
S113019090E0A8D120E030E048E452E431D220E0FD
S11301A030E040E85AE32CD220E030E048EC52E45E
S11301B027D220E030E04AEF53E496D020E030E04C
S11301C040E251E4F6D060930402709305028093F8
S11301D006029093070255D1CB0108951F920F9206
S11301E00FB60F9211240BB60F922F933F934F9398
S11301F05F936F937F938F939F93AF93BF93EF938B
S1130200FF93609178007091790080E090E06AD16A
S1130210609308027093090280930A0290930B0280
S1130220FF91EF91BF91AF919F918F917F916F91CA
S11302305F914F913F912F910F900BBE0F900FBE86
S11302400F901F9018951F920F920FB60F921124C2
S11302500BB60F922F933F934F935F936F937F93BC
S11302608F939F93AF93BF93EF93FF9382DF8BDFC3
S113027090930302809302021BD0FF91EF91BF91F0
S1130280AF919F918F917F916F915F914F913F912A
S11302902F910F900BBE0F900FBE0F901F901895CB
S11302A003D033DF48DFFFCF8FEF81B982B90895E0
S11302B022B12FEF22B982319105A8F08151893002
S11302C008F088E090E00DC042B121E030E0092E52
S11302D002C0220F331F0A94E2F72095242322B987
S11302E09F5F981788F308955058BB27AA270ED00C
S11302F04DC13ED130F043D120F031F49F3F11F491
S11303001EF433C10EF4E095E7FB29C1E92F4FD168
S113031080F3BA17620773078407950718F071F41E
S11303209EF567C10EF4E0950B2EBA2FA02D0B019C
S1130330B90190010C01CA01A0011124FF27591B26
S113034099F0593F50F4503E68F11A16F040A22F2C
S1130350232F342F4427585FF3CF4695379527959D
S1130360A795F0405395C9F77EF41F16BA0B620B9C
S1130370730B840BBAF09150A1F0FF0FBB1F661FE3
S1130380771F881FC2F70EC0BA0F621F731F841F26
S113039048F4879577956795B795F7959E3F08F04C
S11303A0B3CF9395880F08F09927EE0F979587950B
S11303B008950CD0EBC0E3D040F0DAD030F021F453
S11303C05F3F19F0CCC0511115C1CFC0F0D098F3E4
S11303D09923C9F35523B1F3951B550BBB27AA27C2
S11303E062177307840738F09F5F5F4F220F331F34
S11303F0441FAA1FA9F333D00E2E3AF0E0E830D000
S113040091505040E695001CCAF729D0FE2F27D002
S1130410660F771F881FBB1F261737074807AB07D0
S1130420B0E809F0BB0B802DBF01FF2793585F4F45
S11304302AF09E3F510568F092C0DCC05F3FECF3A8
S1130440983EDCF3869577956795B795F7959F5F0A
S1130450C9F7880F911D9695879597F90895E1E05E
S1130460660F771F881FBB1F621773078407BA07BD
S113047020F0621B730B840BBA0BEE1F88F7E09518
S1130480089504D06894B111B5C0089598D088F047
S11304909F5790F0B92F9927B751A0F0D1F0660F6C
S11304A0771F881F991F1AF0BA95C9F712C0B13087
S11304B081F09FD0B1E008959CC0672F782F8827E2
S11304C0B85F39F0B93FCCF3869577956795B395C6
S11304D0D9F73EF490958095709561957F4F8F4F35
S11304E09F4F0895E89409C097FB3EF4909580953A
S11304F0709561957F4F8F4F9F4F9923A9F0F92FE6
S113050096E9BB279395F695879577956795B79563
S1130510F111F8CFFAF4BB0F11F460FF1BC06F5F49
S11305207F4F8F4F9F4F16C0882311F096E911C05B
S1130530772321F09EE8872F762F05C0662371F07C
S113054096E8862F70E060E02AF09A95660F771F90
S1130550881FDAF7880F9695879597F9089597F984
S11305609F6780E870E060E008959FEF80EC089555
S113057000240A941616170618060906089500247E
S11305800A9412161306140605060895092E0394F8
S1130590000C11F4882352F0BB0F40F4BF2B11F46C
S11305A060FF04C06F5F7F4F8F4F9F4F089557FDCB
S11305B09058440F551F59F05F3F71F04795880FCD
S11305C097FB991F61F09F3F79F087950895121664
S11305D013061406551FF2CF4695F1DF08C0161610
S11305E017061806991FF1CF8695710561050894C1
S11305F00895E894BB2766277727CB0197F90895D8
S11306000BD0C4CFB5DF28F0BADF18F0952309F07A
S1130610A6CFABCF1124EECFCADFA0F3959FD1F3C1
S1130620950F50E0551F629FF001729FBB27F00D9C
S1130630B11D639FAA27F00DB11DAA1F649F6627F1
S1130640B00DA11D661F829F2227B00DA11D621F40
S1130650739FB00DA11D621F839FA00D611D221FFA
S1130660749F3327A00D611D231F849F600D211DDE
S1130670822F762F6A2F11249F5750408AF0E1F081
S113068088234AF0EE0FFF1FBB1F661F771F881FCA
S113069091505040A9F79E3F510570F060CFAACF0A
S11306A05F3FECF3983EDCF3869577956795B795B5
S11306B0F795E7959F5FC1F7FE2B880F911D9695DF
S10D06C0879597F90895F894FFCF89
S9030000FC
